:020000040800F2
:10000000B8070020310200087B21000853200008B7
:100010007921000823060008DD2500080000000003
:100020000000000000000000000000007F21000828
:100030005B070008000000007D2100088121000806
:100040004B0200084B0200084B0200084B0200085C
:100050004B0200084B0200084B0200084B0200084C
:100060004B0200084B0200084B0200084B0200083C
:100070004B0200084B0200084B0200084B0200082C
:100080004B0200084B0200084B0200084B0200081C
:10009000250600084B0200084B0200084B0200082E
:1000A0004B0200084B0200084B0200084B020008FC
:1000B0004B0200084B0200084B0200084B020008EC
:1000C0004B0200084B0200084B0200084B020008DC
:1000D0004B0200084B0200084B0200084B020008CC
:1000E0004B0200084B0200084B0200084B020008BC
:1000F0004B0200084B0200084B0200084B020008AC
:100100004B0200084B0200084B0200084B0200089B
:100110004B0200084B0200084B0200084B0200088B
:100120004B0200084B0200084B0200084B0200087B
:100130004B0200084B0200084B0200084B0200086B
:100140004B0200084B0200084B0200084B0200085B
:100150004B020008810600084B020008D125000868
:100160004B0200084B0200084B0200084B0200083B
:100170004B0200084B0200084B0200080000000080
:100180004B0200084B02000800F002F800F041F8B2
:100190000AA090E8000C82448344AAF10107DA45E2
:1001A00001D100F036F8AFF2090EBAE80F0013F0F3
:1001B000010F18BFFB1A43F0010318472026000067
:1001C00040260000103A24BF78C878C1FAD85207F8
:1001D00024BF30C830C144BF04680C6070470000C1
:1001E0000023002400250026103A28BF78C1FBD840
:1001F000520728BF30C148BF0B607047642900F028
:10020000F980002070471FB502F0D2FA1FBD10B56B
:1002100010BD00F0CCF91146FFF7F5FF02F018FA17
:1002200000F0EAF903B4FFF7F2FF03BC00F0F2F9C3
:100230000948804709480047FEE7FEE7FEE7FEE77A
:10024000FEE7FEE7FEE7FEE7FEE7FEE704480549B6
:10025000054A064B70470000192200088901000872
:10026000B8010020B8070020B8030020B803002020
:1002700053EA020C00F069802DE9F04B4FF00006C4
:10028000002B1FBFB3FA83F503FA05F424FA05F631
:100290005E4012BF1643B2FA82F502FA05F4C5F1C8
:1002A00020051EBF22FA05FC44EA0C04203556EA5C
:1002B000044C4FEA144418BF641C4FF000084FF080
:1002C0000009904271EB030C39D3002919BFB1FA30
:1002D00081F701FA07F6B0FA80F700FA07F6C7F1DE
:1002E00020071EBF20FA07FC46EA0C062037B6FBA3
:1002F000F4FCA7EB0507103F07F01F0BCBF120061E
:100300000CFA0BFB2CFA06F644BFB3460026202F4E
:10031000A4BF5E464FF0000B5BEA060C08BF4FF02F
:10032000010B19EB0B09ABFB027C48EB0608C01B69
:1003300006FB02CC0BFB03CC71EB0C01C1E70B46B7
:10034000024641464846BDE8F08B13B54FF0000029
:100350004FF00001AFF30080BDE81C407047000083
:100360000FB41CB5084B06AA7B446946009005985B
:1003700000F005F904460020694600F013F9204614
:100380001CBC5DF814FB0000390200002DE9F041AF
:100390000E460446002020622046E168884730B3BC
:1003A000252805D0D4E901219047206A401CF2E7B6
:1003B000E168204600278847050018D0A5F14100D4
:1003C000192802D820354FF40067324629462046C6
:1003D0002760FFF713FF40B1012804D0F61D26F077
:1003E00007060836D8E7361DD6E72846DAE7206A3A
:1003F000BDE8F0812DE9F04106460024106875291A
:10040000314616A510D0AFF30080002802DA404232
:1004100013A507E031688A0701D512A502E0490754
:1004200004D511A5012401E0AFF3008000210A22C8
:1004300006F1240709E0B0FBF2FCB0FBF2F302FB8B
:100440001C00303078541846491C0028F3D123464C
:100450002A463046BDE8F04100F032B80000000006
:100460002D0000002B000000200000004FF00002D3
:1004700000B5134694469646203922BFA0E80C509A
:10048000A0E80C50B1F12001BFF4F7AF090728BF75
:10049000A0E80C5048BF0CC05DF804EB890028BFF1
:1004A00040F8042B08BF704748BF20F8022B11F01A
:1004B000804F18BF00F8012B704770477047704796
:1004C0002DE9F0470D4699469246044600F124086E
:1004D0000168880604D5E06921F01001216000E080
:1004E0000120A84201DD471B00E00027A1697A191D
:1004F00002EB0900081AA0612078C00602D4204649
:10050000AFF30080002608E0D4E901211AF80600C4
:100510009047206A401C761C20624E45F4DB207810
:10052000C0060AD52046AFF3008006E0D4E90121D9
:1005300030209047206A401C2062381EA7F1010736
:10054000F4DC07E0D4E9012118F805009047206A9F
:10055000401C2062281EA5F10105F3DC2046AFF304
:1005600000802078000602D50220BDE8F087012037
:10057000FBE7000001694A1C02610878704700B57A
:100580008FB0CDE901310021059105497944CDE9CC
:10059000031011466846FFF7F9FE0FB000BD0000DA
:1005A000E5FFFFFF0A6802F8010B0A607047754615
:1005B00000F02CF8AE4605006946534620F00700CF
:1005C000854618B020B5FFF741FEBDE820404FF04A
:1005D00000064FF000074FF000084FF0000B21F02D
:1005E0000701AC46ACE8C009ACE8C009ACE8C009FA
:1005F000ACE8C0098D46704710B50446AFF30080E3
:100600002046BDE81040FFF70DBE000000487047CF
:100610005801002001491820ABBEFEE72600020069
:100620007047FEE7014800F033BA00003C000020AC
:100630003EB5124C4FF4007525600025A560E560BD
:1006400008252561040A8DF804408DF80500080A84
:100650008DF806008DF80710100A8DF808008DF847
:100660000920180A8DF80A008DF80B3003496B46F3
:1006700001AAA1F1280000F085F83EBD6400002029
:10068000014800F0C1BC0000F80000200168CAB2B7
:10069000103A1823B2FBF3F2064B9B5CC3656FF371
:1006A0000901032A02D9091D816500E08165806D79
:1006B00070470000BA27000810B5014600208A6A7A
:1006C0008B694FF0C074002B0ED0B3F5005F1AD0C9
:1006D00062B3012A2AD0022A28D0032A03D1C96A88
:1006E000C90100D5012010BD1AB1012A06D0022A85
:1006F000F9D1C96AC901F6D5012010BDC96AA14264
:10070000FBD1012010BD52B1012A0AD0022A06D025
:10071000032AF7D1C96AA142F4D1012010BD0120FA
:1007200010BDC96AC901FBD5012010BD012010BD53
:1007300030B50468256825F4802525600468636069
:100740008368402B04D0036899600068C26030BDA4
:1007500003689A600068C16030BD704772B6FEE7FA
:1007600090F82020012A07D0022A05D0416A41F4DE
:100770008021416201207047006842690A4342615A
:1007800000207047F0B590F820500468A468012D4F
:1007900007D0022D05D0416A41F480214162012039
:1007A000F0BD04F0806504F00066354301D1E5003A
:1007B0005BD5C4F30164022C05D9416A41F4000100
:1007C00041620120F0BD0125A5401D608B684FF4FA
:1007D000C0759BB1CE6805EB041733434E6843EAFE
:1007E000C6030668F3514FF4C273076803EB0413A2
:1007F0000E69FE50097D012909D00DE00E88CB68F5
:1008000005EB041743EA46530668F351EBE701682A
:10081000CE5846F48076CE501179D379567941EA94
:10082000036193791B0443EA062319434FF4C67608
:10083000036806EB041699511178D37841EA0361F5
:10084000937852781B0443EA022211434FF4C47395
:10085000026803EB0413D150006805EB0411425801
:1008600042F0010242500020F0BD416A41F4001103
:1008700041620120F0BD000010B590F82020012A4F
:1008800007D0022A05D0416A41F48021416201204B
:1008900010BD3C4800F50070026842F001020260A1
:1008A000026822F47C52026002684B6A42EA032228
:1008B00002600A7D02F01F0301229A40C36993433C
:1008C000C361A0F50070CB69B3B9D0F80C32934383
:1008D000C0F80C328C894B6864F31F434C6900EB01
:1008E000C404C4F840320C890B6864F31F434C699C
:1008F00000EBC404C4F84432CB69012B16D1D0F804
:100900000C321343C0F80C320C884B6864F31F435D
:100910004C6900EBC404C4F840320C89CB6864F322
:100920001F434C6900EBC404C4F844328B697BB1AB
:10093000D0F804321343C0F804320B6973B1D0F815
:1009400014321343C0F81432096A01290CD010E0A4
:10095000D0F804329343C0F80432EEE7D0F81432F2
:100960009343C0F81432EFE7D0F81C121143C0F8DB
:100970001C12D0F8001221F00101C0F80012002072
:1009800010BD000000640040704730B590F8204072
:10099000012C07D0022C05D0416A41F4802141622C
:1009A000012030BD21B104682469A4075FD003E0B1
:1009B0000468E468A40754D04FF4D874056804EBC5
:1009C00001142D5905F004059560F5B305682D59FE
:1009D000ED08556005682C5904F00204D4604FF40A
:1009E000DA74056804EB01142D5905F00F05156143
:1009F00005682D59C5F30725956105682C59240C08
:100A000054614FF4DC72046802EB0112A4581C70AC
:100A10000468A458240A5C700468A458240C9C70D0
:100A20000468A258120EDA704FF4DE72046802EB0A
:100A30000112A4581C710468A458240A5C7104684B
:100A4000A458240C9C71046800E016E0A258120E11
:100A5000DA71B9B10068016941F02001016100203B
:100A600030BD416A41F400114162012030BD416A4C
:100A700041F400114162012030BD05682D596D0D12
:100A80001560A7E70068C16841F02001C160E6E792
:100A90002DE9F05F0546002428684669D0F80490E7
:100AA0008768D0F80CA0D0F810B0D0F81880F10703
:100AB00048D0F90714D001218160B80703D5284632
:100AC00000F042FA0CE0780702D54FF4006407E02A
:100AD000380702D54FF4805402E0284600F033FA7C
:100AE000F80516D529684FF480708860B80503D5DD
:100AF000284600F02BFA0CE0780502D544F40054A7
:100B000007E0380502D544F4804402E0284600F0AE
:100B10001CFAF80316D529684FF480308860B803B2
:100B200003D5284600F014FA0CE0780302D544F40B
:100B3000004407E0380302D544F4803402E028463C
:100B400000F005FA300707D55FEACA6004D544F41F
:100B5000007429681020C86070074FF0080707D597
:100B60005FEA0A7004D52868C760284600F074F967
:100B7000B00706D52868C068800702D0284600F074
:100B80006DF9700607D55FEACB6004D544F4806444
:100B9000296810200861B00607D55FEA0B7004D5FC
:100BA00028680761284600F09FF9F00606D52868F6
:100BB0000069800702D0284600F097F9B00308D5F5
:100BC0005FEAC96005D5296810204860284600F012
:100BD0008DF9F00307D55FEA097004D528684760EE
:100BE000284600F0B6F9300446D55FEA497040D592
:100BF000F00504D55FEAC87001D044F00104B005E7
:100C000004D55FEA887001D544F00204700504D56C
:100C10005FEA487001D544F00404300529D518F086
:100C2000700F26D008F07000402815D006DC102880
:100C300009D020280AD0302816D10AE050280ED03A
:100C4000602811D10EE044F008040DE044F01004D7
:100C50000AE044F0200407E044F0400404E044F0DB
:100C6000800401E044F480742868816921F07001F7
:100C70008161296804204860002C05D0686A2043FF
:100C800068622846FFF780FEBDE8F09F70B5044615
:100C9000002C03D094F8200010B104E0012070BDB6
:100CA000204600F09DF82068016841F001010160D4
:100CB00000F036FC054605260CE000F031FC401B38
:100CC0000A2807D9606A40F40030606284F8206026
:100CD000012070BD20684068C007EED02068016820
:100CE00021F00201016000F01BFC05460CE000F061
:100CF00017FC401B0A2807D9606A40F40030606284
:100D000084F82060012070BD206840688007EED420
:100D1000207E01283FD02068016821F08001016019
:100D2000607E01283DD02068016821F0400101600B
:100D3000A07E01283BD02068016821F020010160DD
:100D4000E07E012839D02068016841F0100101607F
:100D5000207F012837D02068016821F00801016058
:100D6000607F012835D02068016821F0040101600E
:100D7000D4E902010843D4E904121143084361682D
:100D8000491E08432168C86100206062012084F880
:100D90002000002070BD2068016841F080010160E2
:100DA000BEE72068016841F040010160C0E72068AB
:100DB000016841F020010160C2E72068016821F06C
:100DC00010010160C4E72068016841F0080101607A
:100DD000C6E72068016841F004010160C8E700002F
:100DE00010B586B00446142101A8FFF73FFB174950
:100DF0002068884227D100211548026842F000721D
:100E00000260006800F0007000901148103802681D
:100E100042F008020260006800F008000090032021
:100E2000019002220292039104900920059001A9E9
:100E3000084800F085FA00221146142000F0E0FB7B
:100E4000142000F0CFFB06B010BD0000006400408D
:100E500040380240000C02407047000010B58AB0D4
:100E600001AB03AA0021FFF790FD0398A0F50070E5
:100E7000013805D0012803D0022801D003282CD145
:100E80000398401EC0B2164A00EB800102EB4100FD
:100E900032F8113003819DF805309DF8044043EA93
:100EA000042322F811309DF807109DF8063041EA1E
:100EB000032141809DF809109DF8083041EA032183
:100EC00081809DF80A108171B2F9200000EE100AAD
:100ED0000448B8EEC00A80ED000A0AB010BD000058
:100EE0007C0000200400002070477047704770B5F8
:100EF000044694F82000012805D0606A40F40020E0
:100F00006062012070BD022084F820002068016822
:100F100021F00101016000F003FB05460DE000F047
:100F2000FFFA401B0A2808D9606A40F4003060626A
:100F3000052084F82000012070BD20684068C007AB
:100F4000EDD1606270BD7047704770477047704761
:100F5000704770472DE9F0410446A76D00F0E0FAB4
:100F6000054694F835000026022806D080206065EA
:100F700084F834600120BDE8F0812068016821F028
:100F8000160101602068416921F080014161206CF7
:100F900008B9A06C20B12068016821F00801016047
:100FA0002068016821F0010101600BE000F0B8FA4F
:100FB000401B052806D920203434206203206070AD
:100FC0002670D8E720680068C007EFD134343F208E
:100FD00094F828108840B8600120607026700020C6
:100FE000C9E790F83510022903D08021416501201E
:100FF0007047052180F835100068016821F0010173
:1010000001600020704700002DE9F84304464FF0CE
:101010000009CDF800906F484FF416510068B0FBFE
:10102000F1F7A56D2E6894F85C00082202FA00F131
:10103000314210D02068016849070CD5016821F0C1
:101040000401016094F85C0002FA00F1A960606D8F
:1010500040F00100606594F85C104FF0010808FA58
:1010600001F0304208D021684969090604D5A8601A
:10107000606D40F00200606594F85C1004208840C8
:10108000304208D021680968890704D5A860606DDE
:1010900040F00400606594F85C10102088403042F5
:1010A00020D02168096809071CD5A860206801685C
:1010B00049030CD50068000304D4216C91B120468B
:1010C00088470FE0A16C69B1204688470AE00168B3
:1010D000C90503D4016821F008010160216C09B140
:1010E0002046884794F85C102020884030424CD03D
:1010F00021680968C90648D5A86094F83500052814
:101100000BD020680168490330D50068000328D45B
:10111000616C51B32046884737E02068016821F0B0
:10112000160101602068416921F080014161206C55
:1011300008B9A06C20B12068016821F008010160A5
:1011400094F85C103F208840A86084F8358084F8CB
:101150003490216D00293BD001B02046BDE8F0431A
:101160000847E16B09B1204688470EE00168C905D0
:1011700007D4016821F01001016084F8358084F8FB
:101180003490E16B09B120468847606D00281FD07C
:10119000606DC00714D0052084F835002068016810
:1011A00021F0010101600098401C0090B84203D872
:1011B00020680068C007F6D184F8358084F8349040
:1011C000E16C002904D001B02046BDE8F043084797
:1011D000BDE8F883180000202DE9F041044600F036
:1011E0009FF905465CB1022084F83500002684F89A
:1011F00034602068016821F0010101600DE00120E8
:10120000BDE8F08100F08CF9401B052805D92020AD
:101210006065032084F83500F2E720680068C007A5
:10122000F0D121680A6820480240D4E9010318433C
:10123000D4E903352B43184363691843A369184362
:10124000E3691843236A18431043626A042A03D1EE
:10125000D4E90B231A43104308602068406920F04A
:101260000700656A29460543012704290DD1A06AB4
:101270000543E06A48B12046FFF71EFA28B1402036
:10128000606584F835700120BAE720684561204622
:10129000FFF7FCF994F85C203F219140816066657E
:1012A00084F835700020ABE73F8010F02DE9F04165
:1012B00004460025A66D94F8340001280DD00120C5
:1012C00084F8340094F835700020012F07D084F89A
:1012D000340002252846BDE8F0810220FBE7022702
:1012E00084F8357060652046FFF722FA94F85C10A8
:1012F0003F208840B0602068016841F0160101601D
:10130000206C20B12068016841F00801016020686C
:10131000016841F001010160DCE7000070B504469E
:1013200000F0FEF80546601C02D004480078044432
:1013300000F0F6F8401BA042FAD370BD0C0000206C
:101340002DE9F84F0022DFF89C914FF0010809F1D8
:10135000040A03274FF00F0C0AF1040B08FA02F5F8
:101360000B682B40AB426ED10C7904F00304012CC6
:1013700001D0022C15D18668540007FA04FE26EA33
:101380000E06D1F80CE00EFA04FE4EEA060EC0F886
:1013900008E04468AC430D79C5F30015954025433A
:1013A00045600C79E443A40708D0C568540007FAE7
:1013B00004F6B5438E68A6402E43C6600C7904F04F
:1013C0000304022C11D1D40800EB8406356A5407BB
:1013D000E40E0CFA04FE25EA0E05D1F810E00EFA30
:1013E00004FE4EEA050EC6F820E00568540007FA30
:1013F00004F6B5430E7906F00306A6402E430660B8
:101400004C6814F4403F67D0374C256845F480455C
:101410002560246804F480440094344C22F00305D1
:101420002E19D6F8085894074FEA147E0CFA0EF4D9
:10143000A5432F4CA04201D1002424E02D4CA04212
:1014400002D101241FE047E02B4CA04201D102242D
:1014500019E02A4CA04201D1032414E0284CA042F8
:1014600001D104240FE0274CA04201D105240AE059
:10147000254CA04201D1062405E0244CA04201D114
:10148000072400E0082404FA0EF42C43C6F80848A8
:10149000D9F800409C434D68ED0300D51C43C9F8C2
:1014A0000040DAF800409C434D68AD0300D51C4372
:1014B000CAF80040DBF800409C434D68ED0200D5BF
:1014C0001C43CBF80040074D0C352C689C434E68FC
:1014D000B60200D51C432C60521C102AFFF43EAF0C
:1014E000BDE8F88F003C0140443802400030014024
:1014F000000002400004024000080240000C0240CC
:10150000001002400014024000180240001C02407B
:10151000002A01D081617047090481617047000091
:1015200001488068704700000C0000200248816874
:1015300002781144816070470C00002010B50B4800
:10154000016841F400710160016841F4806101604B
:10155000016841F480710160032000F071F80F20F0
:1015600000F006F800F026F8002010BD003C024014
:1015700070B504460D4D4FF47A712878B1FBF0F048
:101580000B490968B1FBF0F000F04EFB08B10120F7
:1015900070BD102C07D200222146501E00F030F8FA
:1015A0006C60002070BD012070BD00000C000020A8
:1015B0001800002008B50A48016841F48041016024
:1015C000006800F4804000900548001F016841F069
:1015D00080510160006800F08050009008BD00005C
:1015E00044380240002809DB00F01F02012191402D
:1015F0004009800000F1E020C0F8001170470000B1
:10160000F0B40D460D4B1B68C3F30223C3F107046E
:10161000042C00D90424191D072901D2002300E05D
:10162000DB1E012606FA04F1491E294099409E401E
:10163000761E16403143F0BC00F0D1BF0CED00E047
:1016400000F00701054A10684FF6FF03184040EA12
:101650000120034908431060704700000CED00E0D2
:101660000000FA052DE9F04704460D46002C13D082
:10167000DFF82891D9F80000EFB200F00700A84287
:101680000CD289F80070D9F8000000F00700A842D9
:1016900004D00120BDE8F0870120FBE72068404E20
:1016A000810712D5400703D5306840F4E050306020
:1016B0002078000703D5306840F46040306030681F
:1016C000A16820F0F000084330602078C00731D0D6
:1016D000334960680839012808D002280BD0032854
:1016E00009D0096889070BD40120D3E70968890369
:1016F00006D40120CEE70968890101D40120C9E799
:10170000316821F0030101433160FFF709FF804692
:1017100041F2883A07E0FFF703FFA0EB08005045CD
:1017200001D90320B6E73068616800F00C00B0EB27
:10173000810FF0D1D9F8000000F00700A84209D9C4
:1017400089F80070D9F8000000F00700A84201D025
:1017500001209FE72078400705D53068E16820F434
:10176000E050084330602078000706D530682169D2
:1017700020F4604040EAC100306000F03FF831687A
:10178000084AC1F30311515CC84007490860074883
:101790000068FFF7EDFE00207CE70000003C0240FF
:1017A00008380240C227000818000020100000205E
:1017B00001480068704700001800002000B5FFF7DE
:1017C000F7FF04490968044AC1F38221515CC8400B
:1017D00000BD000008380240D227000800B5FFF71E
:1017E000E7FF04490968044AC1F34231515CC8402B
:1017F00000BD000008380240D227000810B5174885
:10180000006810F00C01164816D0164B042912D0AF
:10181000082911D1114C241F216801F03F022168D1
:1018200049020AD52068C0F38810A0FB03010023F9
:10183000FEF71EFD09E0184610BD21680023C1F324
:101840008811A1FB0001FEF713FD2168C1F30141DE
:10185000491C4900B0FBF1F010BD000008380240FF
:101860000024F400001BB7002DE9F84F0446002CBB
:1018700013D02078DFF8A083C007A8F1040556D064
:1018800008F104000168C1F3810101290CD000684E
:10189000C0F38100022803D00DE00120BDE8F88FDD
:1018A000D8F80000400206D5286880033FD560685C
:1018B00070BB0120F2E76068B0F5803F10D0B0F552
:1018C000A02F12D0286820F480302860286820F4E7
:1018D000802028606068E0B1FFF722FE064614E031
:1018E000286840F480302860F4E7286840F48020BD
:1018F0002860286840F480302860EBE7FFF710FE8E
:10190000801B642801D90320C8E728688003F5D527
:101910000DE0FFF705FE064606E0FFF701FE801B1F
:10192000642801D90320B9E728688003F5D420781A
:10193000BA4F80074FF0000948D5B748001D01682D
:1019400011F00C0F08D00068C0F38100022813D1F9
:10195000D8F8000040020FD42868800704D5E0685A
:10196000012801D0012099E72868216920F0F800BA
:1019700040EAC100286029E0E068B8B10120386081
:10198000FFF7CEFD064606E0FFF7CAFD801B0228E2
:1019900001D9032082E728688007F5D528682169E6
:1019A00020F0F80040EAC10028600FE0C7F800907E
:1019B000FFF7B6FD064606E0FFF7B2FD801B0228E2
:1019C00001D903206AE728688007F5D4207800074A
:1019D00029D5DFF844A2924861690AF1700A89B1F9
:1019E00001210160FFF79CFD064606E0FFF798FD28
:1019F000801B022801D9032050E7DAF80000800795
:101A0000F4D510E0C0F80090FFF78AFD064606E026
:101A1000FFF786FD801B022801D903203EE7DAF894
:101A200000008007F4D42078400778D54FF0000AF2
:101A300079483C300068C0000BD477483C300168DE
:101A400041F080510160006800F0805000904FF03C
:101A5000010ADFF8D0B1DBF80000C00514D4DBF8D0
:101A6000000040F48070CBF80000FFF759FD0646F7
:101A700006E0FFF755FD801B022801D903200DE782
:101A8000DBF80000C005F4D5634EA0686C36012871
:101A90000FD0052812D0306820F001003060306887
:101AA00020F004003060A068F8B1FFF739FD8346EC
:101AB00017E0306840F001003060F4E7306840F033
:101AC00004003060306840F001003060EBE7FFF761
:101AD00027FDA0EB0B0141F28830814201D90320A0
:101AE000DCE630688007F2D510E0FFF719FD834689
:101AF00009E0FFF715FDA0EB0B0141F288308142B0
:101B000001D90320CAE630688007F2D4BAF1010F88
:101B100005D141483C30016821F080510160A06945
:101B2000C0B33D49091D09684FF0FF36C1F381017B
:101B3000022946D0022805D0C7F86090FFF7F0FCD4
:101B400004463AE0C7F86090FFF7EAFC814607E0F8
:101B5000FFF7E6FCA0EB0900022801D903209DE66F
:101B600028688001F4D4D4E907010843616AA26AB5
:101B7000890106EB520241EA0241084394F82C1015
:101B800040EA0160C8F8000001203866FFF7C8FC91
:101B9000044607E03DE0FFF7C3FC001B022801D923
:101BA00003207BE628688001F5D532E0FFF7B8FC1A
:101BB000001B022801D9032070E628688001F5D4B3
:101BC00027E0012823D0D8F80000E26900F4800162
:101BD00091421AD1226A00F03F01914215D147F695
:101BE000C071626A0140B1EB821F0ED1A26A00F49B
:101BF000403106EB5202B1EB024F06D194F82C10A3
:101C000000F07060B0EB016F03D0012046E60120C8
:101C100044E6002042E6000004380240000047424B
:101C2000800E47420070004010B5401EB0F1807F2A
:101C300001D3012010BD4FF0E02460610F21601737
:101C400000F0CDFC0020A06107202061002010BD25
:101C500070477047014611F83D0F497808437047B7
:101C6000F8B5044622681068D168536900F00F0681
:101C7000002E08D1850606D58D0604D52046BDE880
:101C8000F84000F066BB0025002E66D003F0010688
:101C900001F49077374360D0C20705D0CA0503D559
:101CA000226C42F001022264420705D5DA0703D014
:101CB000226C42F002022264820705D5DA0703D0C3
:101CC000226C42F004022264020707D501F02002D0
:101CD000324303D0226C42F008022264226C002AB4
:101CE00031D0800604D5880602D5204600F031FBAD
:101CF00020684069C0F38010216C090700D438B314
:101D0000204600F0E4FA2068406940061CD52068AF
:101D1000143050E8001F21F0400140E80012002A72
:101D2000F5D1A06B60B157490165A06BFFF759F978
:101D3000002808D0A06B016D01B0BDE8F040084755
:101D40002046FFF786FFF8BD2046FFF782FFF8BD6B
:101D50002046FFF77EFF2564F8BD236B012B7ED163
:101D6000C3067CD5CB067AD51068506800905069C0
:101D70004FF02003400643D5A16B0868406880B24D
:101D80000028E9D0A28D8242E6D9E085C869B0F585
:101D9000807F2DD020680C3050E8001F21F4807126
:101DA00040E80012002AF5D12068143050E8001FE6
:101DB00021F0010140E80012002AF5D1206814301A
:101DC00050E8001F21F0400140E80012002AF5D140
:101DD00084F83E30256320680C3050E8001F21F065
:101DE000100140E80012002AF5D1A06BFFF7B2F80D
:101DF000A08DE18D401A81B22046FFF729FFF8BD82
:101E0000A08DE18D401A81B2E08D0028F7D0002925
:101E1000F5D020680C3050E8002F22F4907240E892
:101E20000026002EF5D12068143050E8002F22F053
:101E3000010240E80026002EF5D184F83E302563EB
:101E400020680C3050E8002F22F0100240E80023F8
:101E5000002BF5D12046FFF7FBFEF8BDFFE7020699
:101E600006D50A0604D52046BDE8F84000F080BB40
:101E70004006F2D54806F0D52046BDE8F84000F00F
:101E80004DBA00002922000870B50446002C04D089
:101E900094F83D00002510B106E0012070BD84F8E3
:101EA0003C50204600F022F8242084F83D002068B1
:101EB000C16821F40051C160204600F0CFFA2068CB
:101EC000016921F4904101612068416921F02A01F2
:101ED00041612068C16841F40051C160256420203F
:101EE00084F83D0084F83E00002070BD70B586B0D7
:101EF0000646142101A8FEF7B9FA24493068884241
:101F000041D100252248016841F0200101600068AC
:101F100000F0200000901E481438016841F0400194
:101F20000160006800F0400000904FF48440019090
:101F3000022002900395032004900820059001A937
:101F40001448FFF7FDF9154C134820604FF020604E
:101F500060604020A060E560000120616561A561CE
:101F6000E561256265622046FFF736F908B1FEF7A4
:101F7000F5FB7463A663002201214720FFF740FBB5
:101F80004720FFF72FFB06B070BD00000014014092
:101F90004438024000180240A0640240F8000020CB
:101FA00070470000F7B5044694F83D00202801D0A2
:101FB0000220FEBD019999B392B394F83C00012828
:101FC00031D0012084F83C002162A284E284002503
:101FD0002564212084F83D00636B1448D863636B4B
:101FE00013481864636B1348D864606B05652668F2
:101FF0001346361D3246606BFFF758F921686FF0C3
:102000004000086084F83C502068143050E8001FFD
:1020100041F0800140E80012002AF5D10020FEBD09
:10202000FFE70120FBE70220F9E700008322000818
:10203000C5220008392200080349884202D1034919
:102040000120087070470000B40000200800002044
:102050007047FEE710B50F480D490160032141604C
:1020600000218160C1604FF4102202614FF4001220
:102070004261017641768176C17601774177FEF73C
:1020800005FE002803D0BDE81040FEF767BB10BD79
:10209000006400403C00002008B50948016841F494
:1020A00080010160006800F4800000900022114669
:1020B0004520FFF7A5FABDE808404520FFF792BA92
:1020C0003038024070B586B0142101A8FEF7CEF971
:1020D00000251948016841F040010160016801F0E4
:1020E00040010091016841F001010160016801F0C7
:1020F00001010091016841F008010160016801F0EF
:1021000008010091016841F080010160006800F061
:10211000800000900122094E940221463046FFF7CC
:10212000F7F90194012102910391049501A9304628
:10213000FFF706F906B070BD30380240001C0240BF
:1021400010B50C480A4901604FF4E13141600021AB
:102150008160C16001610C2242618161C161FFF750
:1021600093FE002803D0BDE81040FEF7F7BA10BD7B
:1021700000140140B4000020FEE7FEE770477047FE
:10218000FFF7D4B930B593B0302107A8FEF76EF948
:10219000142102A8FEF76AF900251D48016841F0E4
:1021A00080510160006800F080500190194801687A
:1021B00041F480410160006800F4804001900120FA
:1021C00007900004089002240D9480010E900620D0
:1021D0000F90A820109011940420129007A8FFF7E8
:1021E00043FB08B1FEF7BAFA0F200290039404955E
:1021F0004FF4A05005904FF480500690052102A89E
:10220000FFF730FA002801D0FEF7A8FA13B030BD6E
:1022100040380240007000400248016841F47001FB
:102220000160704788ED00E010B5806B0021C1852A
:10223000C184FFF70EFD10BD70B5846B2068406946
:10224000C0F3C01094F83D100025212904D118B125
:10225000E584204600F06FF820684069C0F38010E4
:1022600094F83E10222904D118B1E585204600F0EB
:102270002EF8206C40F0100020642046FFF7E9FCA7
:1022800070BD10B50146886B09680968C90516D488
:102290000021C1840168143151E8002F22F080022E
:1022A00041E80023002BF5D101680C3151E8002FE3
:1022B00042F0400241E80023002BF5D110BDFFF7AA
:1022C000BBFE10BD10B5806BFFF7C2FE10BD0168EC
:1022D0000C3151E8002F22F4907241E80023002BCA
:1022E000F5D10168143151E8002F22F0010241E8D4
:1022F0000023002BF5D1016B012909D101680C31B4
:1023000051E8002F22F0100241E80023002BF5D104
:10231000202180F83E1000210163704710B501684C
:10232000CA6822F04002CA60202180F83D10FFF701
:1023300083FE002010BD01680C3151E8002F22F00F
:10234000C00241E80023002BF5D1202180F83D1088
:10235000704708B590F83E10222901D0022008BD30
:1023600082684FF480539A4201D1016921B1816A98
:102370009A421DD052B10BE0816A02685268C2F3E2
:1023800008020A80816A891C816209E002697AB1C7
:102390000268526802F07F020A70816A491C8162F9
:1023A000C18D491E0904090CC18505D0002008BD56
:1023B000026852680A70F0E70168CA6822F02002D9
:1023C000CA600168CA6822F48072CA6001684A69FA
:1023D00022F001024A61202180F83E10016B0129A0
:1023E00003D0FFF7DDFD002008BD00210163016877
:1023F0000C3151E8002F22F0100241E80023002B9D
:10240000F5D101680A68D20602D50A6849680091C8
:10241000818DFFF71DFCE6E770B50C4C2578002D8B
:1024200013D00B4602460AA10B48FDF799FF82B272
:1024300000202070084901F11000FFF7B3FD0028CB
:1024400003D0BDE87040FEF789B970BD08000020D8
:1024500025642C25640A0000A40000202DE9F04129
:10246000044620680169E26821F44051114301618A
:10247000A1682069E2690143606910430143206853
:10248000C26849F20C639A430A43C26020684169FA
:10249000A26921F4407111434161334920688842A7
:1024A00002D03249884202D1FFF798F901E0FFF7E4
:1024B00085F9E1690023192764253226B1F5004F1B
:1024C00028D061688B0F8A00A0FB0701FDF7D0FEC2
:1024D0000146B0FBF5F07A42504301EB800006EB79
:1024E0000010B0FBF5F000F0F002B1FBF5F002EBEC
:1024F0000012B1FBF5F07B42584301EB800006EB84
:102500000010B0FBF5F0216800F00F001044886067
:10251000BDE8F08161684A18A0FB07015B41FDF747
:10252000A7FE0146B0FBF5F00201B1FBF5F06FF03C
:102530001803584301EB800006EBC000B0FBF5F038
:1025400000F0F80002EB4002B1FBF5F0584301EB5C
:10255000800006EBC000B0FBF5F0216800F007003A
:1025600010448860D4E700000010014000140140CE
:1025700090F83D10212901D0022070478168B1F503
:10258000805F01D1016961B1016A4A1C026202687F
:1025900009785160C18C491E0904090CC1840AD014
:1025A00013E0016A02680988C1F308015160016AF9
:1025B000891C0162EEE70168CA6822F08002CA60E5
:1025C0000068C16841F04001C16000207047000010
:1025D0000148FFF745BB0000B4000020FEE70907F3
:1025E000090E002804DB00F1E02080F80014704799
:1025F00000F00F0000F1E02080F8141D704700008B
:1026000000B58BB00121099100200790089101903D
:1026100002900390049005900E20069001A90B48AB
:10262000FEF72AF908B1FEF799F80848FEF75FFCB3
:1026300008B1FEF793F802210448FEF791F800284C
:1026400001D0FEF78BF80BB000BD00003C0000206D
:10265000FEF774FFFFF796FDFFF734FDFFF7FAFC76
:10266000FFF71AFDFFF76CFD002243F698219FED5E
:10267000171ADFED170A9FED170A174800F082F8C6
:10268000FFF7BEFF154D164C4FF4FA6695ED000AA4
:10269000D4ED000A104800F027F803460022114646
:1026A0001046FDF7C5FF0F48FFF7D4FA202809D1DF
:1026B00094ED000A3146BDEEC00A10EE100A00B2D9
:1026C000FFF7AAFE0A20FEF729FEDFE7CDCC4C3F3C
:1026D0009A99193E6666E63F1C0000200000002023
:1026E00004000020B400002030EE600A80ED030AF0
:1026F00090ED041AD0ED001A70EE410A60EEA11AB6
:10270000D0ED010A60EE800AF0EE002AB0EE402A19
:1027100001EE622AD0ED052A32EE222AD0ED022AFD
:1027200022EE222A71EEA01A71EE821A10EE901A91
:10273000124A914202DC10EE901A114AB0F91C10B4
:1027400000EE901AF8EEE00A70EEA10AFDEEE00A43
:1027500010EE901A09B28183B0F91820914201DD80
:10276000828304E0B0F91A20914200DA828380ED7E
:10277000051A80ED040AB0F91C00704700004843B8
:10278000000048C380ED000AC0ED010A80ED021A86
:102790009FED060A80ED030A80ED040A80ED050A2C
:1027A0000183428300218183704700000000000004
:1027B0004FF04070E1EE100A704700061016000658
:1027C00010160000000000000000010203040607CC
:1027D000080900000000010203040000FC270008B3
:1027E000000000201C000000C40100081828000898
:1027F0001C0000209C070000E00100080000FA44D3
:1028000000000000010000000100000010000000B6
:08281000000000000024F400A8
:040000050800018965
:00000001FF
